:020000040000FA
:040000005AEF3DF086
:107AB40000EE01F0110EEE6AE806FDE1000143EF6D
:107AC4003EF005C003F005C004F003500F0B036E35
:107AD4000450F00B046E090E036473EF3DF075EF70
:107AE4003DF077EF3DF0090E056E120008C006F078
:107AF40008C007F006500F0B066E0750F00B076E18
:107B04000650D8A488EF3DF08AEF3DF08CEF3DF0AD
:107B1400090E086E120005C003F005C004F00350FE
:107B24000F0B036E0450F00B046E090E03649DEFFB
:107B34003DF09FEF3DF0A2EF3DF00550060F056EBE
:107B4400900E0464A8EF3DF0AAEF3DF0ADEF3DF0D8
:107B54000550600F056E120008C006F008C007F05B
:107B640006500F0B066E0750F00B076E090E0664E5
:107B7400BEEF3DF0C0EF3DF0C3EF3DF00850060FFF
:107B8400086E900E0764C9EF3DF0CBEF3DF0CEEFE9
:107B94003DF00850600F086E12000BC009F00BC0D6
:107BA4000AF009500F0B096E0A50F00B0A6E090E09
:107BB4000964DFEF3DF0E1EF3DF0E4EF3DF00B5001
:107BC400060F0B6E900E0A64EAEF3DF0ECEF3DF009
:107BD400EFEF3DF00B50600F0B6E1200000E156EB0
:107BE400000E146E09EF3EF0000E176E000E166EB6
:107BF400164A172A175009E16E0E165CD8A005EF35
:107C04003EF007EF3EF0FAEF3DF0144A152A125009
:107C1400145C13501558D8A012EF3EF014EF3EF048
:107C2400F6EF3DF012000B2ACFEC3DF05F0E0B6433
:107C34001EEF3EF020EF3EF03CEF3EF0000E0B6EE8
:107C4400082AAEEC3DF05F0E08642BEF3EF02DEFFA
:107C54003EF03CEF3EF0000E086E052A8DEC3DF040
:107C6400230E056438EF3EF03AEF3EF03CEF3EF071
:107C7400000E056E05C080FF08C083FF0BC081FFA6
:107C84001200000E926E000E936E000E956E949E7E
:107C940094829484948C05C080FF08C083FF0BC039
:107CA40081FF82A258EF3EF05AEF3EF05EEF3EF0C5
:107CB40095EC3EF053EF3EF015EC3EF0000E136EE3
:107CC400640E126EF0EC3DF082AC6BEF3EF06DEFA3
:107CD4003EF090EF3EF00C500518D8A474EF3EF03F
:107CE40076EF3EF090EF3EF00D500818D8A47DEFEB
:107CF4003EF07FEF3EF090EF3EF00B50D8A485EFBE
:107D04003EF087EF3EF090EF3EF0828E130E136E3E
:107D1400880E126EF0EC3DF0050E0B26829E53EF9A
:107D24003EF000EF00F00BC011F008C010F005C0E9
:107D34000FF0000E0B6E000E086E000E056EECEFD9
:107D44003FF00BC081FF82A4AAEF3EF0ACEF3EF0FF
:107D5400C3EF3EF0014A022A000E136EFA0E126EB1
:107D6400F0EC3DF0025009E1050E015CD8A0BDEF36
:107D74003EF0BFEF3EF0C3EF3EF0000E026E000E89
:107D8400016E01040210D8A4CAEF3EF0CCEF3EF01D
:107D94000CEF3FF082A8D1EF3EF0D3EF3EF0EEEFD0
:107DA4003EF05F0E0864D9EF3EF0DBEF3EF0DFEF0C
:107DB4003EF0000E086EEAEF3EF0000E136EFA0E6F
:107DC400126EF0EC3DF0082AAEEC3DF008C083FFE3
:107DD40008C00DF057EF3FF082AAF3EF3EF0F5EF45
:107DE4003EF057EF3FF00850D8A4FBEF3EF0FDEF14
:107DF4003EF001EF3FF0600E086EEAEF3EF0000E39
:107E0400136EFA0E126EF0EC3DF0080678EC3DF0BD
:107E1400E8EF3EF0020E01180210D8A414EF3FF070
:107E240016EF3FF057EF3FF082A81BEF3FF01DEF36
:107E34003FF039EF3FF0240E0518D8A424EF3FF0AB
:107E440026EF3FF02AEF3FF0000E056E35EF3FF0CE
:107E5400000E136EFA0E126EF0EC3DF0052A8DEC56
:107E64003DF005C080FF05C00CF057EF3FF082AA3B
:107E74003EEF3FF040EF3FF057EF3FF00550D8A4FE
:107E840046EF3FF048EF3FF04CEF3FF0240E056E15
:107E940052EF3FF0000E136EFA0E126EF0EC3DF04E
:107EA400050663EC3DF033EF3FF0030E01180210BA
:107EB400D8A45FEF3FF061EF3FF0A1EF3FF082A85D
:107EC40066EF3FF068EF3FF083EF3FF05F0E08642A
:107ED4006EEF3FF070EF3FF074EF3FF0000E086E6E
:107EE4007FEF3FF0000E136EFA0E126EF0EC3DF0D1
:107EF400082AAEEC3DF008C083FF08C010F0ECEF98
:107F04003FF082AA88EF3FF08AEF3FF0ECEF3FF0BA
:107F14000850D8A490EF3FF092EF3FF096EF3FF077
:107F2400600E086E7FEF3FF0000E136EFA0E126EB5
:107F3400F0EC3DF0080678EC3DF07DEF3FF0040EE8
:107F440001180210D8A4A9EF3FF0ABEF3FF0ECEF1B
:107F54003FF082A8B0EF3FF0B2EF3FF0CEEF3FF03A
:107F6400240E0518D8A4B9EF3FF0BBEF3FF0BFEFE4
:107F74003FF0000E056ECAEF3FF0000E136EFA0ECE
:107F8400126EF0EC3DF0052A8DEC3DF005C080FF4B
:107F940005C00FF0ECEF3FF082AAD3EF3FF0D5EF2E
:107FA4003FF0ECEF3FF00550D8A4DBEF3FF0DDEFFE
:107FB4003FF0E1EF3FF0240E056EE7EF3FF0000ED7
:107FC400136EFA0E126EF0EC3DF0050663EC3DF014
:107FD400C8EF3FF082B2F1EF3FF0F3EF3FF0A3EFD1
:107FE4003EF011C00BF010C008F00FC005F005C042
:0C7FF40080FF08C083FF0BC081FF12005B
:020000040020DA
:08000000FFFFFFFFFFFFFFFF00
:020000040030CA
:0E000000000C191EFF8185FF0FC00FE00F409E
:00000001FF
